:100000000C9446000C9465000C9465000C946500FB
:100010000C9465000C9465000C9465000C946500CC
:100020000C9465000C9465000C9465000C946500BC
:100030000C9465000C9465000C9465000C946500AC
:100040000C9465000C9465000C9465000C9465009C
:100050000C9465000C9465000C9465000C9465008C
:100060000C9465000C9465000C9465000C9465007C
:100070000C9465000C9465000C9465000C9465006C
:100080000C9465000C9465000C94650011241FBE4F
:10009000CFEFD0E4DEBFCDBF11E0A0E0B1E0E0EBF8
:1000A000FAE000E00BBF02C007900D92AC32B1073E
:1000B000D9F721E0ACE2B1E001C01D92A633B2074E
:1000C000E1F70E949D030C9456050C940000CF9319
:1000D000DF9300D01F92CDB7DEB789837B836A831D
:1000E00089818A3031F48A819B81BC018DE00E9434
:1000F000670080EC90E0FC018081882F90E08072A6
:100100009927892BB1F386EC90E02981FC012083AB
:1001100080E090E00F900F900F90DF91CF910895C5
:10012000CF93DF93CDB7DEB780E290E0FC01808112
:100130008095DF91CF910895CF93DF93CDB7DEB750
:100140000E949000982F81E0913009F080E0DF91CB
:10015000CF910895CF93DF93CDB7DEB70E94900083
:10016000982F81E0923009F080E0DF91CF910895DF
:10017000CF93DF93CDB7DEB70E949000982F81E038
:10018000943009F080E0DF91CF910895CF93DF9311
:10019000CDB7DEB70E9490008170DF91CF910895B6
:1001A000CF93DF93CDB7DEB70E9490008270DF91CE
:1001B000CF910895CF93DF93CDB7DEB70E94900023
:1001C0008470DF91CF9108950F931F93CF93DF93A6
:1001D00000D000D0CDB7DEB769837A838B839C8350
:1001E00080912E0190912F01A0913001B0913101A9
:1001F0009C01AD0169817A818B819C810E94C2033F
:10020000882309F477C020E030E0A90169817A8170
:100210008B819C810E94C203882351F481E990E084
:1002200021E930E0F90120812870FC01208309C018
:1002300081E990E021E930E0F90120812360FC01AF
:10024000208328E539E344E75FE369817A818B8184
:100250009C810E94C203882344F488E990E02FEF38
:100260003FEFFC013183208334C020E034E244EFCF
:1002700056E469817A818B819C810E94E40418167E
:1002800034F488E990E0FC011182108222C008E970
:1002900010E020E030E040E053E469817A818B8116
:1002A0009C810E94E904DC01CB019C01AD0160E06E
:1002B00074E284EF9AE40E94C703DC01CB01BC0125
:1002C000CD010E943904DC01CB010197F801918333
:1002D000808384E990E0FC011182108289819A81F7
:1002E000AB81BC8180932E0190932F01A0933001AC
:1002F000B093310100000F900F900F900F90DF919D
:10030000CF911F910F910895CF93DF93CDB7DEB7B3
:1003100080E990E020E4FC01208381E990E02BE07B
:10032000FC01208360E070E0CB010E94E40000004B
:10033000DF91CF910895CF93DF93CDB7DEB780E9FA
:1003400090E0FC01108281E990E0FC011082000045
:10035000DF91CF910895CF93DF9300D01F92CDB757
:10036000DEB78B838B81282F30E0C901880F991F5E
:10037000820F931F825F9E4FFC01808189838B8156
:10038000282F30E0C901880F991F820F931F815FCA
:100390009E4FFC0180818A838981813239F48A8170
:1003A000813221F480E090E0DC0160C089818334F7
:1003B00041F48A81843329F484EA90EDA2E8B3E41D
:1003C00055C08981843441F48A81843329F48BE7D0
:1003D00094EDA2E9B3E44AC08981853441F48A816D
:1003E000843329F484EA90EDA4EAB3E43FC0898120
:1003F000863441F48A81843329F481E79DE9AEEAA9
:10040000B3E434C08981873441F48A81843329F488
:1004100080E090E0A4ECB3E429C08981813441F408
:100420008A81843329F480E090E0ACEDB3E41EC00F
:100430008981823441F48A81843329F484EA90EFFB
:10044000A6EFB3E413C08981833441F48A818533F4
:1004500029F480E090EDA2E0B4E408C08091270187
:1004600090912801A0912901B0912A01BC01CD01F0
:100470000F900F900F90DF91CF910895CF93DF935E
:10048000CDB7DEB78091340190913501813091056F
:1004900081F08130910530F082309105E1F00397D1
:1004A00009F132C081E090E09093350180933401EE
:1004B00030C00E94B800882339F082E090E0909329
:1004C00035018093340125C081E090E0909335019F
:1004D000809334011EC083E090E0909335018093B7
:1004E000340117C00E94DA00882339F083E090E0DD
:1004F00090933501809334010CC081E090E090939B
:1005000035018093340105C01092350110923401F9
:10051000000080913401909135018130910551F1B5
:100520008130910548F18230910519F0039731F13E
:1005300026C080912D01882319F010922D0103C04F
:1005400081E080932D0180912D01882369F08091B5
:10055000270190912801A0912901B0912A01BC01A5
:10056000CD010E94E4000BC060E070E0CB010E946E
:10057000E40005C0000003C0000001C0000000004E
:10058000DF91CF910895CF93DF93CDB7DEB7809100
:100590002D01882339F481E090E09093330180931A
:1005A0003201C8C0809132019091330184309105AD
:1005B00040F48230910560F5009731F0019759F0D1
:1005C00044C0049761F141C081E090E09093330111
:1005D000809332013FC00E949C00882339F082E062
:1005E00090E0909333018093320134C00E94AA00BE
:1005F000882339F083E090E09093330180933201B7
:1006000029C081E090E0909333018093320122C0B1
:1006100084E090E090933301809332011BC00E94EC
:10062000C600882321F40E94D000882339F084E09A
:1006300090E090933301809332010CC081E090E010
:10064000909333018093320105C0109233011092D0
:100650003201000080913201909133018230910586
:1006600089F08330910538F4009709F45AC0019756
:1006700009F459C05FC08330910579F1049709F4FA
:1006800054C058C080912C018F5F80932C018091C1
:100690002C010E94AB01DC01CB01809327019093D8
:1006A0002801A0932901B0932A01809127019091FC
:1006B0002801A0912901B0912A01BC01CD010E941D
:1006C000E40090912C0180912601981781F580918A
:1006D0002601815080932C012AC080912C0188230F
:1006E00041F180912C01815080932C0180912C014B
:1006F0000E94AB01DC01CB0180932701909328017C
:10070000A0932901B0932A0180912701909128019B
:10071000A0912901B0912A01BC01CD010E94E40001
:1007200009C0000007C0000005C0000003C00000B1
:1007300001C00000DF91CF910895CF93DF93CDB733
:10074000DEB781E290E0FC01108282E290E02FEFC0
:10075000FC01208384E290E02FEFFC01208385E2FE
:1007600090E0FC0110821092350110923401109239
:100770003301109232010E9484010E943E020E94C5
:10078000C302FBCF0E946F0408F481E008950E9429
:10079000DB030C94AA040E94A30458F00E949C045A
:1007A00040F029F45F3F29F00C94930451110C940C
:1007B000DE040C9499040E94BB0468F39923B1F3FE
:1007C000552391F3951B550BBB27AA276217730777
:1007D000840738F09F5F5F4F220F331F441FAA1F0B
:1007E000A9F335D00E2E3AF0E0E832D091505040C7
:1007F000E695001CCAF72BD0FE2F29D0660F771F75
:10080000881FBB1F261737074807AB07B0E809F05A
:10081000BB0B802DBF01FF2793585F4F3AF09E3FDF
:10082000510578F00C9493040C94DE045F3FE4F3DC
:10083000983ED4F3869577956795B795F7959F5F22
:10084000C9F7880F911D9695879597F90895E1E06E
:10085000660F771F881FBB1F621773078407BA07CD
:1008600020F0621B730B840BBA0BEE1F88F7E09528
:1008700008950E9440046894B1110C94DE04089518
:100880000E94C30488F09F5798F0B92F9927B75159
:10089000B0F0E1F0660F771F881F991F1AF0BA9524
:1008A000C9F714C0B13091F00E94DD04B1E00895A1
:1008B0000C94DD04672F782F8827B85F39F0B93F93
:1008C000CCF3869577956795B395D9F73EF49095D7
:1008D0008095709561957F4F8F4F9F4F0895990F29
:1008E0000008550FAA0BE0E8FEEF16161706E807FA
:1008F000F907C0F012161306E407F50798F0621B1B
:10090000730B840B950B39F40A2661F0232B242BEF
:10091000252B21F408950A2609F4A140A6958FEF0E
:10092000811D811D089597F99F6780E870E060E060
:1009300008959FEF80EC089500240A941616170678
:1009400018060906089500240A94121613061406C0
:1009500005060895092E0394000C11F4882352F023
:10096000BB0F40F4BF2B11F460FF04C06F5F7F4FDB
:100970008F4F9F4F089557FD9058440F551F59F0C2
:100980005F3F71F04795880F97FB991F61F09F3F7C
:1009900079F087950895121613061406551FF2CFA5
:1009A0004695F1DF08C0161617061806991FF1CFF5
:1009B00086957105610508940895E894BB2766271C
:1009C0007727CB0197F908950E946F0408F48FEF01
:1009D00008950E94FC040C94AA040E949C0438F020
:1009E0000E94A30420F0952311F00C9493040C941E
:1009F000990411240C94DE040E94BB0470F3959FAB
:100A0000C1F3950F50E0551F629FF001729FBB2705
:100A1000F00DB11D639FAA27F00DB11DAA1F649FA1
:100A20006627B00DA11D661F829F2227B00DA11D54
:100A3000621F739FB00DA11D621F839FA00D611DDA
:100A4000221F749F3327A00D611D231F849F600DFB
:100A5000211D822F762F6A2F11249F5750409AF024
:100A6000F1F088234AF0EE0FFF1FBB1F661F771FB0
:100A7000881F91505040A9F79E3F510580F00C947B
:100A800093040C94DE045F3FE4F3983ED4F3869520
:100A900077956795B795F795E7959F5FC1F7FE2B1B
:100AA000880F911D9695879597F90895F894FFCF33
:100AB0000000000200000000670000000000433456
:100AC00000443400453400463400473400413400CB
:0C0AD00042340043350008A4D0824300EB
:00000001FF
