:100000000C9446000C9465000C9465000C946500FB
:100010000C9465000C9465000C9465000C946500CC
:100020000C9465000C9465000C9465000C946500BC
:100030000C9465000C94F4000C9465000C9465001D
:100040000C9465000C9465000C9465000C9465009C
:100050000C9465000C9465000C9465000C9465008C
:100060000C9465000C9465000C9465000C9465007C
:100070000C9465000C9465000C9465000C9465006C
:100080000C9465000C9465000C94650011241FBE4F
:10009000CFEFD0E4DEBFCDBF12E0A0E0B1E0E6EDEF
:1000A000FAE000E00BBF02C007900D92A431B10747
:1000B000D9F722E0A4E1B2E001C01D92A032B2075C
:1000C000E1F70E9497030C9469050C940000CF930C
:1000D000DF9300D01F92CDB7DEB789837B836A831D
:1000E00089818A3031F48A819B81BC018DE00E9434
:1000F000670080EC90E0FC018081882F90E08072A6
:100100009927892BB1F386EC90E02981FC012083AB
:1001100080E090E00F900F900F90DF91CF910895C5
:10012000CF93DF93CDB7DEB780E290E0FC01808112
:100130008095DF91CF910895CF93DF93CDB7DEB750
:100140000E9490008170DF91CF910895CF93DF934B
:10015000CDB7DEB781E0809315020000DF91CF912B
:100160000895CF93DF93CDB7DEB781E890E0FC012F
:1001700010820000DF91CF910895CF93DF93CDB728
:10018000DEB781E890E02BE0FC01208388E890E076
:100190002DE730E0FC01318320838FE690E022E000
:1001A000FC01208384E890E0FC01118210828091A0
:1001B0000F0290911002A0911102B091120280934F
:1001C000160290931702A0931802B09319028FE5BC
:1001D00090E02FE530E0F90120812068FC012083C8
:1001E0000000DF91CF9108951F920F9200905F0061
:1001F0000F92112400905B000F922F933F934F9327
:100200005F936F937F938F939F93AF93BF93EF937E
:10021000FF93CF93DF93CDB7DEB780911602909115
:100220001702A0911802B09119020197A109B10912
:100230008093160290931702A0931802B0931902AC
:100240008091160290911702A0911802B0911902A4
:10025000892B8A2B8B2B91F40E94A60080910F0290
:1002600090911002A0911102B09112028093160297
:1002700090931702A0931802B09319020000DF9127
:10028000CF91FF91EF91BF91AF919F918F917F910E
:100290006F915F914F913F912F910F9000925B0072
:1002A0000F9000925F000F901F901895CF93DF93EF
:1002B00000D000D0CDB7DEB769837A838B839C836F
:1002C00089819A81AB81BC8180930F029093100247
:1002D000A0931102B093120280910F02909110022C
:1002E000A0911102B091120280931602909317020E
:1002F000A0931802B093190200000F900F900F9076
:100300000F90DF91CF9108950F931F93CF93DF93B9
:1003100000D000D0CDB7DEB769837A838B839C830E
:1003200080911A0290911B02A0911C02B0911D02B3
:100330009C01AD0169817A818B819C810E94D503EA
:10034000882309F477C020E030E0A90169817A812F
:100350008B819C810E94D503882351F481E990E030
:1003600021E930E0F90120812870FC01208309C0D7
:1003700081E990E021E930E0F90120812360FC016E
:10038000208328E539E344E75FE369817A818B8143
:100390009C810E94D503882344F488E990E02FEFE4
:1003A0003FEFFC013183208334C020E034E244EF8E
:1003B00056E469817A818B819C810E94F70418162A
:1003C00034F488E990E0FC011182108222C008E92F
:1003D00010E020E030E040E053E469817A818B81D5
:1003E0009C810E94FC04DC01CB019C01AD0160E01A
:1003F00074E284EF9AE40E94DA03DC01CB01BC01D1
:10040000CD010E944C04DC01CB010197F8019183DE
:10041000808384E990E0FC011182108289819A81B5
:10042000AB81BC8180931A0290931B02A0931C02A3
:10043000B0931D0200000F900F900F900F90DF916E
:10044000CF911F910F910895CF93DF93CDB7DEB772
:1004500080E990E020E4FC01208381E990E02BE03A
:10046000FC01208360E070E0CB010E948401000069
:10047000DF91CF910895CF93DF93CDB7DEB780E9B9
:1004800090E0FC01108281E990E0FC011082000004
:10049000DF91CF910895CF93DF9300D000D0CDB7F7
:1004A000DEB78C838C81882F90E0880F991F880F8E
:1004B000991F825F9E4FFC01808189838C81882FE8
:1004C00090E0880F991F880F991F815F9E4FFC0154
:1004D00080818A838C81882F90E0880F991F880FF4
:1004E000991F805F9E4FFC0180818B8389818132BF
:1004F00051F48B81813239F48A81813221F480E098
:1005000090E0DC0190C08981853459F48B8184337B
:1005100041F48A818F3529F484EA90EDA4EAB3E4AA
:1005200082C08981873459F48B81833341F48A8175
:10053000833229F489EE96EAAFE4B3E474C089818A
:10054000863459F48B81843341F48A81833229F4CF
:1005500088EB9EEFA8EBB3E466C08981843459F43C
:100560008B81843341F48A81833229F482E490E9D7
:10057000ABE9B3E458C08981833459F48B81843367
:1005800041F48A81833229F48AE097E9AAE8B3E446
:100590004AC08981833459F48B81843341F48A8140
:1005A0008F3529F484EA90EDA2E8B3E43CC0898158
:1005B000833459F48B81853341F48A81833229F461
:1005C0008EEA97E9AAE0B4E42EC08981813459F417
:1005D0008B81833341F48A818F3529F480E090E068
:1005E000A8E5B3E420C08981813459F48B81833339
:1005F00041F48A81833229F48BE794E1A9E6B3E4DC
:1006000012C08981823459F48B81843341F48A8108
:100610008F3529F484EA90EFA6EFB3E404C080E0BC
:1006200090E0ACE5B5E4BC01CD010F900F900F90C8
:100630000F90DF91CF910895CF93DF93CDB7DEB7C1
:1006400080911E0290911F028130910581F08130CE
:10065000910530F082309105E1F0039739F131C016
:1006600081E090E090931F0280931E0232C00E94AE
:100670009C00882339F082E090E090931F028093E1
:100680001E0227C081E090E090931F0280931E021B
:1006900020C09091140280910E029817B9F483E063
:1006A00090E090931F0280931E0210C00E949C0055
:1006B000882371F481E090E090931F0280931E02E2
:1006C00007C010921F0210921E0203C0000001C05A
:1006D000000080911E0290911F028130910549F027
:1006E00081309105F8F08230910531F00397A1F047
:1006F0001AC01092140217C0809114020E944B027B
:10070000DC01CB01BC01CD010E9484018091140267
:100710008F5F8093140207C060E070E0CB010E94FD
:10072000840101C000000000DF91CF910895CF93B4
:10073000DF9300D000D0CDB7DEB781E290E0FC01BE
:10074000108282E290E02FEFFC01208384E290E0AF
:100750002FEFFC01208385E290E0FC0110821092D3
:100760001F0210921E0285E595E5A0E5B3E489839A
:100770009A83AB83BC8369817A818B819C810E943F
:100780005304DC01CB01BC01CD010E9456010E9443
:10079000BD000E9424020E941C03000080911502EB
:1007A0008823E1F310921502F6CF0E94820408F428
:1007B00081E008950E94EE030C94BD040E94B604EB
:1007C00058F00E94AF0440F029F45F3F29F00C94E8
:1007D000A60451110C94F1040C94AC040E94CE04B4
:1007E00068F39923B1F3552391F3951B550BBB2760
:1007F000AA2762177307840738F09F5F5F4F220FA5
:10080000331F441FAA1FA9F335D00E2E3AF0E0E89B
:1008100032D091505040E695001CCAF72BD0FE2FE5
:1008200029D0660F771F881FBB1F26173707480779
:10083000AB07B0E809F0BB0B802DBF01FF27935831
:100840005F4F3AF09E3F510578F00C94A6040C944B
:10085000F1045F3FE4F3983ED4F38695779567956E
:10086000B795F7959F5FC9F7880F911D9695879566
:1008700097F90895E1E0660F771F881FBB1F621785
:1008800073078407BA0720F0621B730B840BBA0B43
:10089000EE1F88F7E09508950E9453046894B11103
:1008A0000C94F10408950E94D60488F09F5798F0A4
:1008B000B92F9927B751B0F0E1F0660F771F881F65
:1008C000991F1AF0BA95C9F714C0B13091F00E947F
:1008D000F004B1E008950C94F004672F782F882776
:1008E000B85F39F0B93FCCF3869577956795B395A6
:1008F000D9F73EF490958095709561957F4F8F4F15
:100900009F4F0895990F0008550FAA0BE0E8FEEFDE
:1009100016161706E807F907C0F012161306E407C3
:10092000F50798F0621B730B840B950B39F40A26BC
:1009300061F0232B242B252B21F408950A2609F49A
:10094000A140A6958FEF811D811D089597F99F679E
:1009500080E870E060E008959FEF80EC0895002447
:100960000A941616170618060906089500240A9414
:1009700012161306140605060895092E0394000C9A
:1009800011F4882352F0BB0F40F4BF2B11F460FF29
:1009900004C06F5F7F4F8F4F9F4F089557FD905852
:1009A000440F551F59F05F3F71F04795880F97FB33
:1009B000991F61F09F3F79F08795089512161306ED
:1009C0001406551FF2CF4695F1DF08C0161617061C
:1009D0001806991FF1CF8695710561050894089551
:1009E000E894BB2766277727CB0197F908950E94E3
:1009F000820408F48FEF08950E940F050C94BD0443
:100A00000E94AF0438F00E94B60420F0952311F044
:100A10000C94A6040C94AC0411240C94F1040E94D0
:100A2000CE0470F3959FC1F3950F50E0551F629F60
:100A3000F001729FBB27F00DB11D639FAA27F00D37
:100A4000B11DAA1F649F6627B00DA11D661F829F5E
:100A50002227B00DA11D621F739FB00DA11D621F43
:100A6000839FA00D611D221F749F3327A00D611D60
:100A7000231F849F600D211D822F762F6A2F112442
:100A80009F5750409AF0F1F088234AF0EE0FFF1F75
:100A9000BB1F661F771F881F91505040A9F79E3FCC
:100AA000510580F00C94A6040C94F1045F3FE4F32C
:100AB000983ED4F3869577956795B795F795E79522
:100AC0009F5FC1F7FE2B880F911D9695879597F92B
:060AD0000895F894FFCF29
:100AD600000000020000000067000000000047233D
:100AE6003300455F3400455F340046233400442319
:100AF600340044233400455F3400455F340043230B
:100B06003400432334004423340044233400415F3B
:100B16003300415F33004723330047233300472325
:100B26003300455F3400455F3400462334004423D8
:100B3600340044233400455F3400455F34004323CA
:100B4600340043233400425F3400425F34004323C1
:100B560035004323350021212100212121002121B7
:100B66002100455F3400455F3400462334004423AA
:100B7600340044233400455F3400455F340043238A
:100B86003400432334004423340044233400415FBB
:100B96003300415F330047233300472333004723A5
:100BA60033004323340043233400432334004323D8
:100BB60034004323340043233400432334004323C7
:100BC6003400432334002121210021212100212149
:100BD60021004123330041233300435F34004001A9
:040BE600000000000B
:00000001FF
