:100000000C9446000C9465000C9465000C946500FB
:100010000C9465000C9465000C9465000C946500CC
:100020000C9465000C9465000C9465000C946500BC
:100030000C9465000C9465000C9465000C946500AC
:100040000C9465000C9465000C9465000C9465009C
:100050000C9465000C9465000C9465000C9465008C
:100060000C9465000C9465000C9465000C9465007C
:100070000C9465000C9465000C9465000C9465006C
:100080000C9465000C9465000C94650011241FBE4F
:10009000CFEFD0E4DEBFCDBF11E0A0E0B1E0E2E001
:1000A000F9E000E00BBF02C007900D92A831B10744
:1000B000D9F721E0A8E1B1E001C01D92AE31B2074D
:1000C000E1F70E94CC020C947F040C940000CF93C3
:1000D000DF9300D01F92CDB7DEB789837B836A831D
:1000E00089818A3031F48A819B81BC018DE00E9434
:1000F000670080EC90E0FC018081882F90E08072A6
:100100009927892BB1F386EC90E02981FC012083AB
:1001100080E090E00F900F900F90DF91CF910895C5
:10012000CF93DF93CDB7DEB780E290E0FC01808112
:100130008095DF91CF910895CF93DF93CDB7DEB750
:100140000E949000982F81E0913009F080E0DF91CB
:10015000CF910895CF93DF93CDB7DEB70E94900083
:10016000982F81E0923009F080E0DF91CF910895DF
:10017000CF93DF93CDB7DEB70E949000982F81E038
:10018000943009F080E0DF91CF910895CF93DF9311
:10019000CDB7DEB70E9490008170DF91CF910895B6
:1001A000CF93DF93CDB7DEB70E9490008270DF91CE
:1001B000CF910895CF93DF93CDB7DEB70E94900023
:1001C0008470DF91CF9108950F931F93CF93DF93A6
:1001D00000D000D0CDB7DEB769837A838B839C8350
:1001E0008091180190911901A0911A01B0911B0101
:1001F0009C01AD0169817A818B819C810E94EB0217
:10020000882309F477C020E030E0A90169817A8170
:100210008B819C810E94EB02882351F481E990E05C
:1002200021E930E0F90120812870FC01208309C018
:1002300081E990E021E930E0F90120812360FC01AF
:10024000208328E539E344E75FE369817A818B8184
:100250009C810E94EB02882344F488E990E02FEF10
:100260003FEFFC013183208334C020E034E244EFCF
:1002700056E469817A818B819C810E940D04181655
:1002800034F488E990E0FC011182108222C008E970
:1002900010E020E030E040E053E469817A818B8116
:1002A0009C810E941204DC01CB019C01AD0160E045
:1002B00074E284EF9AE40E94F002DC01CB01BC01FD
:1002C000CD010E946203DC01CB010197F80191830B
:1002D000808384E990E0FC011182108289819A81F7
:1002E000AB81BC818093180190931901A0931A01EE
:1002F000B0931B0100000F900F900F900F90DF91B3
:10030000CF911F910F910895CF93DF93CDB7DEB7B3
:1003100080E990E020E4FC01208381E990E02BE07B
:10032000FC01208360E070E0CB010E94E40000004B
:10033000DF91CF910895CF93DF93CDB7DEB780E9FA
:1003400090E0FC01108281E990E0FC011082000045
:10035000DF91CF910895CF93DF9300D01F92CDB757
:10036000DEB78B838B81282F30E0C901880F991F5E
:10037000820F931F825F9E4FFC01808189838B8156
:10038000282F30E0C901880F991F820F931F815FCA
:100390009E4FFC0180818A838981813239F48A8170
:1003A000813221F480E090E0DC0125C08981833432
:1003B00041F48A81843329F484EA90EDA2E8B3E41D
:1003C0001AC08981843441F48A81843329F48BE70B
:1003D00094EDA2E9B3E40FC08981853441F48A81A8
:1003E000843329F484EA90EDA4EAB3E404C080E005
:1003F00090E0ACE5B5E4BC01CD010F900F900F90FB
:10040000DF91CF910895CF93DF93CDB7DEB7809181
:100410001C0190911D018230910509F43FC0833089
:10042000910528F4009759F0019781F06DC0833051
:10043000910509F445C0049709F454C065C081E0F2
:1004400090E090931D0180931C0163C00E949C006A
:10045000882339F082E090E090931D0180931C0185
:1004600058C00E94AA00882339F083E090E090935E
:100470001D0180931C014DC00E94B800882339F0F3
:1004800084E090E090931D0180931C0142C081E0C4
:1004900090E090931D0180931C013BC00E949C0042
:1004A000882339F082E090E090931D0180931C0135
:1004B00030C081E090E090931D0180931C0129C021
:1004C0000E94AA00882339F083E090E090931D01F8
:1004D00080931C011EC081E090E090931D018093E9
:1004E0001C0117C00E94B800882339F084E090E016
:1004F00090931D0180931C010CC081E090E09093CB
:100500001D0180931C0105C010921D0110921C0159
:10051000000080911C0190911D0182309105A1F095
:100520008330910528F4009791F1019739F02AC0A2
:100530008330910599F00497D9F024C060E070E011
:10054000CB010E94E40024C080E00E94AB01DC01EA
:10055000CB01BC01CD010E94E4001AC081E00E94E1
:10056000AB01DC01CB01BC01CD010E94E40010C055
:1005700082E00E94AB01DC01CB01BC01CD010E94F5
:10058000E40006C010921D0110921C0101C0000081
:100590000000DF91CF910895CF93DF93CDB7DEB701
:1005A00081E290E0FC01108282E290E02FEFFC01FA
:1005B000208384E290E02FEFFC01208385E290E02D
:1005C000FC01108210921D0110921C010E948401F6
:1005D0000E940302FDCF0E94980308F481E0089571
:1005E0000E9404030C94D3030E94CC0358F00E9491
:1005F000C50340F029F45F3F29F00C94BC0351116E
:100600000C9407040C94C2030E94E40368F399233A
:10061000B1F3552391F3951B550BBB27AA276217FE
:100620007307840738F09F5F5F4F220F331F441F0B
:10063000AA1FA9F335D00E2E3AF0E0E832D091503F
:100640005040E695001CCAF72BD0FE2F29D0660F2C
:10065000771F881FBB1F261737074807AB07B0E86F
:1006600009F0BB0B802DBF01FF2793585F4F3AF075
:100670009E3F510578F00C94BC030C9407045F3F37
:10068000E4F3983ED4F3869577956795B795F795FB
:100690009F5FC9F7880F911D9695879597F90895E3
:1006A000E1E0660F771F881FBB1F6217730784077F
:1006B000BA0720F0621B730B840BBA0BEE1F88F78E
:1006C000E09508950E9469036894B1110C940704A1
:1006D00008950E94EC0388F09F5798F0B92F99274E
:1006E000B751B0F0E1F0660F771F881F991F1AF01D
:1006F000BA95C9F714C0B13091F00E940604B1E078
:1007000008950C940604672F782F8827B85F39F076
:10071000B93FCCF3869577956795B395D9F73EF4B5
:1007200090958095709561957F4F8F4F9F4F08955D
:10073000990F0008550FAA0BE0E8FEEF16161706F2
:10074000E807F907C0F012161306E407F50798F05A
:10075000621B730B840B950B39F40A2661F0232B73
:10076000242B252B21F408950A2609F4A140A695EF
:100770008FEF811D811D089597F99F6780E870E0D4
:1007800060E008959FEF80EC089500240A94161607
:10079000170618060906089500240A94121613066F
:1007A000140605060895092E0394000C11F48823FD
:1007B00052F0BB0F40F4BF2B11F460FF04C06F5F19
:1007C0007F4F8F4F9F4F089557FD9058440F551FEF
:1007D00059F05F3F71F04795880F97FB991F61F0C3
:1007E0009F3F79F087950895121613061406551F3A
:1007F000F2CF4695F1DF08C0161617061806991FA6
:10080000F1CF86957105610508940895E894BB279A
:1008100066277727CB0197F908950E94980308F47B
:100820008FEF08950E9425040C94D3030E94C50302
:1008300038F00E94CC0320F0952311F00C94BC03F7
:100840000C94C20311240C9407040E94E40370F377
:10085000959FC1F3950F50E0551F629FF001729F65
:10086000BB27F00DB11D639FAA27F00DB11DAA1F74
:10087000649F6627B00DA11D661F829F2227B00DC1
:10088000A11D621F739FB00DA11D621F839FA00D4C
:10089000611D221F749F3327A00D611D231F849F9C
:1008A000600D211D822F762F6A2F11249F575040F3
:1008B0009AF0F1F088234AF0EE0FFF1FBB1F661F6E
:1008C000771F881F91505040A9F79E3F510580F037
:1008D0000C94BC030C9407045F3FE4F3983ED4F3FC
:1008E000869577956795B795F795E7959F5FC1F7DB
:1008F000FE2B880F911D9695879597F90895F8948A
:02090000FFCF27
:100902000000000200000000670000000000433405
:080912000044340045340000EC
:00000001FF
